:400000000010002011000000010200000102000008B500F0FDF8C04638B5114C23688025ED022B432360202000F07CFA0D4A0E4B1A6010220D4B1A60802212060C4B1A6018
:4000400025600C4A0C4B1A6009200C4900F036FA092000F027FA0022094B1A6038BDC04600010B400600008004010B400802024008010B401501008000000240350700003B
:400080000C020B4010B572B6002410E0204863001A195200821891881B195B001A5AC31858880004104300F0FBF80134E4B2012CECD9EE221202174B1A609922164B1A6098
:4000C00099231B04154A1360154A1360154B1978022002220A431A70134C22783C218A4328390A432270197816220A431A700F4A0F4B1A60D82212010E4B1A600E4B186092
:4001000031220E4B1A600E4B1860FFF785FF10BDF00900000C0001401000014000500F4030500F4000700F4001700F40060CC00008000440080304400004044008040440F8
:400140001804044010B5064C2378002B07D1054B002B02D0044800E000BF0123237010BD5801002000000000EC09000008B5084B002B03D00748084900E000BF0748036839
:40018000002B00D108BD064B002BFBD09847F9E700000000EC0900005C010020C80000200000000030B585B000F0CAF862B60025FA246400201C00F093F9012000F00CFBC3
:4001C000201C00F08DF9002000F006FB6C1CE4B2002300930193064B0293042303930548291C054A054B00F0E1F8251CE0E7C046CC000020A401002078010020D4000020EB
:4002000008B500F0B5FB03680C2B00D1FEE7FEE770B50F4E0F4D13E029686B68AC68002202E001C901C30432A242FAD1E868002202E0002102C304328242FAD11035013EE1
:40024000002EE9D100F09AFBFFF7ACFFFEE7C04601000000540A000008B500230AE0032B03D89A000A49505800E00A4899000A4A885001332F2BF2D9FFF704FF0022074B01
:400280001A608022D205116801230B43136008BD000000000102000000000020C000002008B50A1C002100F098FB08BD08B500F0D7FA01225242014B1A6008BDC00F064004
:4002C00008B5002000F0D6F800230C4A137000220B490B800B490B800B490B800B490B800B490B800B4B1A7002210B4B19700B4B1A70012000F0BEF808BDC046FB0100207A
:400300006A02002064020020FC010020F801002068020020FA010020FE0100206602002008B50422044B1A60044800F095F8002000F0ACF808BDC046C80F0640AD02000069
:4003400008B500F07DFA064B1B78002B04D1FFF7B7FF0122024B1A70FFF7E2FF08BDC0467401002010B5041C7E2000F089FA2088000A00F085FA208800F082FAA01C218808
:4003800000F08CFA5223E05C00F07AFA002010BDFF22002305E0C1188978521AD2B201339BB201889942F6D8101C7047F0B583B0041C019308AB1F7809AB1E780BAB1D78D1
:4003C0002B1C0E33038010238370C1700430111C082200F0F9FA201C0C300199022200F0F3FAA773E673201C10300A992A1C00F0EBFA201CFFF7CCFF5223E054201CFFF795
:40040000B1FF002003B0F0BD014B98667047C0460000002010B5041C00F0F4F9044A1168044B0B40A4051C43146000F0EFF910BD08E400E0FFFF3FFF8022D200014B1A60DF
:400440007047C04600E100E08022D200014B1A607047C04680E100E010B5041CFFF7F4FF201CFFF7D1FF0320FFF7D4FFFFF7E4FF10BDC046031C04490868FE2202400120FF
:4004800018401043086070470000044004490A68F7231A40C000EF3B1840104308607047000004401F2318401E3B8340181C014B1860704700E100E001BE704738B5041C5A
:4004C0000D1C1F2802D90020FFF7F6FFA400034B9C4664442068256038BDC0464000002010B5041C06E0084B586800F081F9074B9C46644480231B029C42F4D8024B9868E7
:40050000604300F075F910BDD80000200080FFFF08B5034B1B7B584300F06AF908BDC046D8000020F0B557464E46C0B483B0041C00F068F90190E71E2D2F74D83F4B1B78DC
:40054000DBB2A34208D33E4B1B78DBB29A463D4B1B78DBB2994631E03B4B1B78DBB2A34208D33A4B1B78DBB29A46394B1B78DBB2994623E0374B1B78DBB2A34208D3364BB9
:400580001B78DBB29A46354B1B78DBB2994615E0334B1B78DBB2A34208D3324B1B78DBB29A46314B1B78DBB2994607E02F4B1B78DBB29A462E4B1B78DBB299462D4BDE5DE5
:4005C0002F2E09D92A2C07D919222B4B1A60052000F00EF9192503E0274B1D683F231D40AE4206D2234BDA5D234B1A60052000F0FFF81F4B9C4664442378DBB21F4A13600F
:400600001F4B52461A601F4B4A461A600520FFF77FFFAE420AD9174BDA5D174B1A60052000F0E6F802E00020FFF746FF019800F0EDF803B00CBC91469A46F0BDC0F1FF0FAD
:40064000C1F1FF0FC2F1FF0FC3F1FF0FC4F1FF0FC5F1FF0FC6F1FF0FC7F1FF0FC8F1FF0FC9F1FF0FCAF1FF0FCBF1FF0FCCF1FF0FCDF1FF0FFC0900002CFF0B4028FF0B407F
:400680001CFF0B4020FF0B40034B1868C0231B02184000D00120704700010B4008B500F0B1F8044A1368C02109020B43136000F0ADF808BD00010B4010B500F0A3F808493D
:4006C0000A68084B1A408024E40122430A600A6813408022120213430B6000F097F810BD00010B40FF3FFFFF70B5061C00F08AF8041CFFF7C9FF002803D0FFF7DDFF0125E9
:4007000000E000250848331C0340084A106808490840184310601368012D01D1FFF7BEFF201C00F073F870BD0404040010020B40FBFBFBFF10B5244B1B685B0715D5234BE8
:400740001B685B070ED5224BD969042001401F4C22688A432260DA698243DA611B69002B00D098470420FFF7BFFF174B1B685B0518D5164B1B685B0510D5154BD969802241
:40078000D2001140114802688A430260D969114A0A40DA615B69002B00D098478020C000FFF7A2FF084B1B685B030CD5074B1B685B0304D5064B9B69002B00D0984780207D
:4007C000C002FFF791FF10BD10020B40EC00002080010020FFFBFFFF044A11687F230B40C001C0B2184310607047C046000004400230800804D0C0460138FDD1C046C04688
:40080000C0467047EFF3108072B6704780F310887047C046C046C04608B500F097F808BD08B500F047F808BD08B5044A1368802109060B431360FFF7EFFF08BD000006403E
:4008400008B5064B1B78002B04D1FFF7E9FF0122024B1A70FFF7E8FF08BDC046A0010020054B1A68802149020A431A601968034A0A401A607047C04604030640FFFFFEFF7A
:40088000044B1B680F221340082BF9D0024B18607047C046080206404002064070B5061C0D1C002403E0305DFFF7EAFF0134AC42F9D370BD134A144B1A600023134A136064
:4008C0000121134A1160134A1348026013480360134803601348016013490A60134A1360134A1360134A1360134A1360134A13600421134A1160134A13601268124B1A80AC
:400900007047C0460B00000200000640400006404800064007000080000306400403064010030640440006400002064004020640880E0640C80E0640480F0640080F06400D
:40094000C80F0640880F0640A201002005490B68F0229343603A13430B60034B1A88034B1A60704710000140A2010020880F0640014B18687047C046500100200E4B70B5DE
:4009800000251E1C0D4CE41AA410A54204D0AB00F35898470135F8E700F04AF8084B00251E1C084CE41AA410A54204D0AB00F35898470135F8E770BD3C0A00003C0A0000E0
:4009C0003C0A0000440A0000002310B5934203D0CC5CC4540133F9E710BD031C8218934202D019700133FAE7704700000000000000300F40000400400F40000403040506D5
:400A00000708090A0B0C0E0F101112131415161718191B1C1D1E1F2021222325262728292A2B2E2F303132333435000043000000F8B5C046F8BC08BC9E4670476D01000061
:400A400059020000F8B5C046F8BC08BC9E46704745010000680A0000C800002090000000180100000000000000000000484F4C4100000000FFFE0000010000000000803E2C
:400A8000007D0000200000000048E8010404040000000000000000000000000000000000000000000000000000000000000000002C0A000000000000000000000000000026
:400AC000000000000000000000000000000000000000000000000000000000000000000000000000000000000000000000000000F0000020000000000000000000000000E6
:400B000000000000000000000000000000000000000000000000000000000000000000000000000000000000000000000000000000000000000000000000000000000000B5
:400B40000000000000000000000000000000000000000000000000000000000000000000000000000000000000000000000000000000000000000000000000000000000075
:400B80000000000000000000000000000000000000000000000000000000000000000000000000000000000000000000000000000000000000000000000000000000000035
:400BC00000000000000000000000000000000000000000000000000000000000000000000000000000000000000000000000000000000000000000000000000000000000F5
:0200000490303A
:0200000076E8A0
:0200000490402A
:200000000000000000000000000000000000000000000000000000000000000000000000E0
:0200000490501A
:0C000000000204C81193110104CB887B9E
:0200000490600A
:0100000001FE
:00000001FF